:030000000201B842
:0C01B800787FE4F6D8FD7581310201FF6C
:0F0354000A09EE06BA3E567CFC0EFE7E0108003A
:03002300020026B2
:10002600C0E0C0F0C083C082C0D075D000C000C0A0
:0D00360001C002C003C004C005C006C00721
:10004300209803020188E599642D70030200D97496
:1000530030D3959950047F0180027F00D3EF6480F1
:1000630094B950720520E5207002051FAF998F08DF
:10007300751300751400752501EF30E03DE525B4D7
:1000830001080514E51470020513E525B4020B7489
:10009300022514F514E43513F513E525B4030B74A5
:1000A300042514F514E43513F513E525B4040B7492
:1000B300082514F514E43513F513EFA2E713FF0530
:1000C30025E525B405B3E52025E02415F8A6130896
:1000D300A614C298D299E599642D70718599081276
:1000E3000317851F2D85202EE520451F6020E52061
:1000F30025E02415F8E6F51308E6F5142409F8E6D7
:10010300FF120298E520152070DE151F80DA752B8B
:1001130000752C00C37404952EFFE4952DFEC3E5F2
:100123002C9FEE6480F8E52B648098500FE4FF1257
:100133000298052CE52C70DC052B80D812038D75F5
:100143002100752201D281C280C298D299E59964B7
:10015300467047859908120003751F007520001229
:1001630003647FE01202C77FE01202C77FE6120238
:10017300C77FD81202C712039A752100752200C2E5
:1001830081D2808015309912C299E508600CB40DB4
:0A0193000375080A85089975080035
:10019D00D007D006D005D004D003D002D001D000B6
:0B01AD00D0D0D082D083D0F0D0E03260
:020298008F2FA6
:10029A00E4F530F531E52F30E704D2938002C293BA
:1002AA00120373E52F25E0F52F0531E531700205BC
:0C02BA0030C39408E5306480948040D983
:0102C6002215
:0202C7008F2F77
:1002C900E4F530F531E52F30E704D2918002C2918F
:1002D900120380E52F25E0F52F0531E53170020580
:0C02E90030C39408E5306480948040D954
:0102F50022E6
:0D037300C294120364D294120364C2942257
:0D038000C287120364D287120364C2872271
:0D038D00C290120364D290120364C2902249
:0D039A00C286120364D286120364C286225A
:10034400758920759850758DFDC2A9D28ED29922D7
:0503B000D2ACD2AF2227
:09001A00C294C293C290D292225A
:0903A700C287C291C286D29222E3
:0E036400E4FFFE0FBF00010EEF64644E70F563
:010372002268
:1002F600120003120317C280C2817F101202987F78
:10030600101202987F101202987F101202980203B0
:010316008D59
:10000300E4FF120298E4FF120298E4FF120298E45C
:07001300FF12029802038DA9
:10031700E4FF1202C7E4FF1202C7E4FF1202C7E4B8
:07032700FF1202C702039A56
:10024400E4F523F524AE23AF24E4FCFD7B607AEAD5
:10025400F9F8D312032E400A0524E52470E7052398
:1002640080E31203441203B012001A1203A712020D
:01027400F693
:10027500E4F526F5270527E52770020526B4F6F5EA
:10028500E526B47FF0E522640145217002B281B212
:0102950082E6
:0202960080DD09
:1001C400020244E493A3F8E493A34003F68001F20B
:1001D40008DFF48029E493A3F85407240CC8C3333C
:1001E400C4540F4420C8834004F456800146F6DF0B
:1001F400E4800B0102040810204080900354E47E44
:10020400019360BCA3FF543F30E509541FFEE493FF
:10021400A360010ECF54C025E060A840B8E493A3C6
:10022400FAE493A3F8E493A3C8C582C8CAC583CAF1
:10023400F0A3C8C582C8CAC583CADFE9DEE780BEA9
:010363000099
:10032E00EB9FF5F0EA9E42F0E99D42F0EC6480C846
:06033E0064809845F022E6
:00000001FF
